:020000040000FA
:0400000003EF00F01A
:020004000000FA
:0A00060009EC00F023EC00F007EF16
:1000100000F0410E006E002EFED71200A50E006EFD
:10002000002EFED712000C0E006EA50E016E012EE2
:10003000FED7002EFAD700000000000000000000EC
:10004000000000001200610E006E002EFED70000BE
:1000500000001200270E006E002EFED700001200D6
:10006000320E006EA50E016E012EFED7002EFAD7BD
:100070000000000000000000000000000000000080
:100080000000000000000000000000000000000070
:100090000000000000000000000000000000000060
:1000A0000000000000000000000000000000000050
:1000B0000000000000000000000000000000000040
:1000C000000000000000000000001200FA0E006EA8
:1000D000F80E016E012EFED7002EFAD7A40E006E88
:0A00E000002EFED700000000120001
:00000001FF
